{
  "address": "0xFbd87C5A144dd178771e8b37403d8F443908e63D",
  "abi": [
    {
      "inputs": [],
      "stateMutability": "nonpayable",
      "type": "constructor"
    },
    {
      "anonymous": false,
      "inputs": [
        {
          "indexed": true,
          "internalType": "address",
          "name": "owner",
          "type": "address"
        },
        {
          "indexed": true,
          "internalType": "address",
          "name": "approved",
          "type": "address"
        },
        {
          "indexed": true,
          "internalType": "uint256",
          "name": "tokenId",
          "type": "uint256"
        }
      ],
      "name": "Approval",
      "type": "event"
    },
    {
      "anonymous": false,
      "inputs": [
        {
          "indexed": true,
          "internalType": "address",
          "name": "owner",
          "type": "address"
        },
        {
          "indexed": true,
          "internalType": "address",
          "name": "operator",
          "type": "address"
        },
        {
          "indexed": false,
          "internalType": "bool",
          "name": "approved",
          "type": "bool"
        }
      ],
      "name": "ApprovalForAll",
      "type": "event"
    },
    {
      "anonymous": false,
      "inputs": [
        {
          "indexed": true,
          "internalType": "address",
          "name": "previousOwner",
          "type": "address"
        },
        {
          "indexed": true,
          "internalType": "address",
          "name": "newOwner",
          "type": "address"
        }
      ],
      "name": "OwnershipTransferred",
      "type": "event"
    },
    {
      "anonymous": false,
      "inputs": [
        {
          "indexed": true,
          "internalType": "address",
          "name": "from",
          "type": "address"
        },
        {
          "indexed": true,
          "internalType": "address",
          "name": "to",
          "type": "address"
        },
        {
          "indexed": true,
          "internalType": "uint256",
          "name": "tokenId",
          "type": "uint256"
        }
      ],
      "name": "Transfer",
      "type": "event"
    },
    {
      "anonymous": false,
      "inputs": [
        {
          "indexed": false,
          "internalType": "address",
          "name": "owner",
          "type": "address"
        },
        {
          "indexed": false,
          "internalType": "uint256",
          "name": "numPurchase",
          "type": "uint256"
        },
        {
          "indexed": false,
          "internalType": "uint256",
          "name": "totalSupply",
          "type": "uint256"
        }
      ],
      "name": "mintEvent",
      "type": "event"
    },
    {
      "inputs": [],
      "name": "MAX_Token",
      "outputs": [
        {
          "internalType": "uint256",
          "name": "",
          "type": "uint256"
        }
      ],
      "stateMutability": "view",
      "type": "function"
    },
    {
      "inputs": [],
      "name": "PRICE",
      "outputs": [
        {
          "internalType": "uint256",
          "name": "",
          "type": "uint256"
        }
      ],
      "stateMutability": "view",
      "type": "function"
    },
    {
      "inputs": [
        {
          "internalType": "address",
          "name": "to",
          "type": "address"
        },
        {
          "internalType": "uint256",
          "name": "tokenId",
          "type": "uint256"
        }
      ],
      "name": "approve",
      "outputs": [],
      "stateMutability": "nonpayable",
      "type": "function"
    },
    {
      "inputs": [
        {
          "internalType": "address",
          "name": "owner",
          "type": "address"
        }
      ],
      "name": "balanceOf",
      "outputs": [
        {
          "internalType": "uint256",
          "name": "",
          "type": "uint256"
        }
      ],
      "stateMutability": "view",
      "type": "function"
    },
    {
      "inputs": [],
      "name": "baseURI",
      "outputs": [
        {
          "internalType": "string",
          "name": "",
          "type": "string"
        }
      ],
      "stateMutability": "view",
      "type": "function"
    },
    {
      "inputs": [
        {
          "internalType": "uint256",
          "name": "tokenId",
          "type": "uint256"
        }
      ],
      "name": "getApproved",
      "outputs": [
        {
          "internalType": "address",
          "name": "",
          "type": "address"
        }
      ],
      "stateMutability": "view",
      "type": "function"
    },
    {
      "inputs": [
        {
          "internalType": "address",
          "name": "_to",
          "type": "address"
        },
        {
          "internalType": "uint256",
          "name": "numPurchase",
          "type": "uint256"
        }
      ],
      "name": "giveawayMint",
      "outputs": [],
      "stateMutability": "nonpayable",
      "type": "function"
    },
    {
      "inputs": [],
      "name": "hasSaleStarted",
      "outputs": [
        {
          "internalType": "bool",
          "name": "",
          "type": "bool"
        }
      ],
      "stateMutability": "view",
      "type": "function"
    },
    {
      "inputs": [
        {
          "internalType": "address",
          "name": "owner",
          "type": "address"
        },
        {
          "internalType": "address",
          "name": "operator",
          "type": "address"
        }
      ],
      "name": "isApprovedForAll",
      "outputs": [
        {
          "internalType": "bool",
          "name": "",
          "type": "bool"
        }
      ],
      "stateMutability": "view",
      "type": "function"
    },
    {
      "inputs": [
        {
          "internalType": "uint256",
          "name": "numPurchase",
          "type": "uint256"
        }
      ],
      "name": "mintToken",
      "outputs": [],
      "stateMutability": "payable",
      "type": "function"
    },
    {
      "inputs": [],
      "name": "name",
      "outputs": [
        {
          "internalType": "string",
          "name": "",
          "type": "string"
        }
      ],
      "stateMutability": "view",
      "type": "function"
    },
    {
      "inputs": [],
      "name": "owner",
      "outputs": [
        {
          "internalType": "address",
          "name": "",
          "type": "address"
        }
      ],
      "stateMutability": "view",
      "type": "function"
    },
    {
      "inputs": [
        {
          "internalType": "uint256",
          "name": "tokenId",
          "type": "uint256"
        }
      ],
      "name": "ownerOf",
      "outputs": [
        {
          "internalType": "address",
          "name": "",
          "type": "address"
        }
      ],
      "stateMutability": "view",
      "type": "function"
    },
    {
      "inputs": [],
      "name": "pauseSale",
      "outputs": [],
      "stateMutability": "nonpayable",
      "type": "function"
    },
    {
      "inputs": [],
      "name": "renounceOwnership",
      "outputs": [],
      "stateMutability": "nonpayable",
      "type": "function"
    },
    {
      "inputs": [
        {
          "internalType": "address",
          "name": "from",
          "type": "address"
        },
        {
          "internalType": "address",
          "name": "to",
          "type": "address"
        },
        {
          "internalType": "uint256",
          "name": "tokenId",
          "type": "uint256"
        }
      ],
      "name": "safeTransferFrom",
      "outputs": [],
      "stateMutability": "nonpayable",
      "type": "function"
    },
    {
      "inputs": [
        {
          "internalType": "address",
          "name": "from",
          "type": "address"
        },
        {
          "internalType": "address",
          "name": "to",
          "type": "address"
        },
        {
          "internalType": "uint256",
          "name": "tokenId",
          "type": "uint256"
        },
        {
          "internalType": "bytes",
          "name": "_data",
          "type": "bytes"
        }
      ],
      "name": "safeTransferFrom",
      "outputs": [],
      "stateMutability": "nonpayable",
      "type": "function"
    },
    {
      "inputs": [
        {
          "internalType": "address",
          "name": "operator",
          "type": "address"
        },
        {
          "internalType": "bool",
          "name": "approved",
          "type": "bool"
        }
      ],
      "name": "setApprovalForAll",
      "outputs": [],
      "stateMutability": "nonpayable",
      "type": "function"
    },
    {
      "inputs": [
        {
          "internalType": "string",
          "name": "baseURI",
          "type": "string"
        }
      ],
      "name": "setBaseURI",
      "outputs": [],
      "stateMutability": "nonpayable",
      "type": "function"
    },
    {
      "inputs": [
        {
          "internalType": "uint256",
          "name": "_MAX_num",
          "type": "uint256"
        }
      ],
      "name": "setMAX_Token",
      "outputs": [],
      "stateMutability": "nonpayable",
      "type": "function"
    },
    {
      "inputs": [
        {
          "internalType": "uint256",
          "name": "_price",
          "type": "uint256"
        }
      ],
      "name": "set_PRICE",
      "outputs": [],
      "stateMutability": "nonpayable",
      "type": "function"
    },
    {
      "inputs": [],
      "name": "startSale",
      "outputs": [],
      "stateMutability": "nonpayable",
      "type": "function"
    },
    {
      "inputs": [
        {
          "internalType": "bytes4",
          "name": "interfaceId",
          "type": "bytes4"
        }
      ],
      "name": "supportsInterface",
      "outputs": [
        {
          "internalType": "bool",
          "name": "",
          "type": "bool"
        }
      ],
      "stateMutability": "view",
      "type": "function"
    },
    {
      "inputs": [],
      "name": "symbol",
      "outputs": [
        {
          "internalType": "string",
          "name": "",
          "type": "string"
        }
      ],
      "stateMutability": "view",
      "type": "function"
    },
    {
      "inputs": [
        {
          "internalType": "uint256",
          "name": "index",
          "type": "uint256"
        }
      ],
      "name": "tokenByIndex",
      "outputs": [
        {
          "internalType": "uint256",
          "name": "",
          "type": "uint256"
        }
      ],
      "stateMutability": "view",
      "type": "function"
    },
    {
      "inputs": [
        {
          "internalType": "address",
          "name": "owner",
          "type": "address"
        },
        {
          "internalType": "uint256",
          "name": "index",
          "type": "uint256"
        }
      ],
      "name": "tokenOfOwnerByIndex",
      "outputs": [
        {
          "internalType": "uint256",
          "name": "",
          "type": "uint256"
        }
      ],
      "stateMutability": "view",
      "type": "function"
    },
    {
      "inputs": [
        {
          "internalType": "uint256",
          "name": "tokenId",
          "type": "uint256"
        }
      ],
      "name": "tokenURI",
      "outputs": [
        {
          "internalType": "string",
          "name": "",
          "type": "string"
        }
      ],
      "stateMutability": "view",
      "type": "function"
    },
    {
      "inputs": [
        {
          "internalType": "address",
          "name": "_owner",
          "type": "address"
        }
      ],
      "name": "tokensOfOwner",
      "outputs": [
        {
          "internalType": "uint256[]",
          "name": "",
          "type": "uint256[]"
        }
      ],
      "stateMutability": "view",
      "type": "function"
    },
    {
      "inputs": [],
      "name": "totalSupply",
      "outputs": [
        {
          "internalType": "uint256",
          "name": "",
          "type": "uint256"
        }
      ],
      "stateMutability": "view",
      "type": "function"
    },
    {
      "inputs": [
        {
          "internalType": "address",
          "name": "from",
          "type": "address"
        },
        {
          "internalType": "address",
          "name": "to",
          "type": "address"
        },
        {
          "internalType": "uint256",
          "name": "tokenId",
          "type": "uint256"
        }
      ],
      "name": "transferFrom",
      "outputs": [],
      "stateMutability": "nonpayable",
      "type": "function"
    },
    {
      "inputs": [
        {
          "internalType": "address",
          "name": "newOwner",
          "type": "address"
        }
      ],
      "name": "transferOwnership",
      "outputs": [],
      "stateMutability": "nonpayable",
      "type": "function"
    },
    {
      "inputs": [],
      "name": "withdrawAll",
      "outputs": [],
      "stateMutability": "payable",
      "type": "function"
    }
  ],
  "transactionHash": "0xae2275dfa9f174c26aa7ca2f4af57121fbc72094fe6801e1a5312bb17a08321f",
  "args": [],
  "solcInputHash": "456aa1769884eb06fd8327d603d24c35",
  "bytecode": "0x60806040526103e8600b5566b1a2bc2ec50000600c556001600d60006101000a81548160ff0219169083151502179055503480156200003d57600080fd5b506040518060400160405280600881526020017f426c7565476561720000000000000000000000000000000000000000000000008152506040518060400160405280600281526020017f4247000000000000000000000000000000000000000000000000000000000000815250620000c26301ffc9a760e01b6200021f60201b60201c565b8160069080519060200190620000da9291906200044a565b508060079080519060200190620000f39291906200044a565b506200010c6380ac58cd60e01b6200021f60201b60201c565b62000124635b5e139f60e01b6200021f60201b60201c565b6200013c63780e9d6360e01b6200021f60201b60201c565b50506000620001506200032860201b60201c565b905080600a60006101000a81548173ffffffffffffffffffffffffffffffffffffffff021916908373ffffffffffffffffffffffffffffffffffffffff1602179055508073ffffffffffffffffffffffffffffffffffffffff16600073ffffffffffffffffffffffffffffffffffffffff167f8be0079c531659141344cd1fd0a4f28419497f9722a3daafe3b4186f6b6457e060405160405180910390a35062000219604051806060016040528060278152602001620045c0602791396200033060201b60201c565b620004f0565b63ffffffff60e01b817bffffffffffffffffffffffffffffffffffffffffffffffffffffffff19161415620002bc576040517f08c379a000000000000000000000000000000000000000000000000000000000815260040180806020018281038252601c8152602001807f4552433136353a20696e76616c696420696e746572666163652069640000000081525060200191505060405180910390fd5b6001600080837bffffffffffffffffffffffffffffffffffffffffffffffffffffffff19167bffffffffffffffffffffffffffffffffffffffffffffffffffffffff1916815260200190815260200160002060006101000a81548160ff02191690831515021790555050565b600033905090565b620003406200032860201b60201c565b73ffffffffffffffffffffffffffffffffffffffff16620003666200040460201b60201c565b73ffffffffffffffffffffffffffffffffffffffff1614620003f0576040517f08c379a00000000000000000000000000000000000000000000000000000000081526004018080602001828103825260208152602001807f4f776e61626c653a2063616c6c6572206973206e6f7420746865206f776e657281525060200191505060405180910390fd5b62000401816200042e60201b60201c565b50565b6000600a60009054906101000a900473ffffffffffffffffffffffffffffffffffffffff16905090565b8060099080519060200190620004469291906200044a565b5050565b828054600181600116156101000203166002900490600052602060002090601f016020900481019282601f106200048d57805160ff1916838001178555620004be565b82800160010185558215620004be579182015b82811115620004bd578251825591602001919060010190620004a0565b5b509050620004cd9190620004d1565b5090565b5b80821115620004ec576000816000905550600101620004d2565b5090565b6140c080620005006000396000f3fe6080604052600436106101e35760003560e01c80636b9da6f31161010257806395d89b4111610095578063c634d03211610064578063c634d03214610c32578063c87b56dd14610c60578063e985e9c514610d14578063f2fde38b14610d9b576101e3565b806395d89b4114610a1c578063a22cb46514610aac578063b66a0e5d14610b09578063b88d4fde14610b20576101e3565b80638462151c116100d15780638462151c14610900578063853828b6146109a65780638d859f3e146109b05780638da5cb5b146109db576101e3565b80636b9da6f3146107c95780636c0360eb146107f457806370a0823114610884578063715018a6146108e9576101e3565b80632f745c591161017a57806355367ba91161014957806355367ba91461064a57806355f804b3146106615780636352211e146107295780636456c2051461078e576101e3565b80632f745c59146104d657806342842e0e146105455780634c2c38c4146105c05780634f6ccce7146105fb576101e3565b8063095ea7b3116101b6578063095ea7b3146103a857806318160ddd146104035780631c8b232d1461042e57806323b872dd1461045b576101e3565b806301ffc9a7146101e8578063048266241461025857806306fdde03146102b3578063081812fc14610343575b600080fd5b3480156101f457600080fd5b506102406004803603602081101561020b57600080fd5b8101908080357bffffffffffffffffffffffffffffffffffffffffffffffffffffffff19169060200190929190505050610dec565b60405180821515815260200191505060405180910390f35b34801561026457600080fd5b506102b16004803603604081101561027b57600080fd5b81019080803573ffffffffffffffffffffffffffffffffffffffff16906020019092919080359060200190929190505050610e53565b005b3480156102bf57600080fd5b506102c8611122565b6040518080602001828103825283818151815260200191508051906020019080838360005b838110156103085780820151818401526020810190506102ed565b50505050905090810190601f1680156103355780820380516001836020036101000a031916815260200191505b509250505060405180910390f35b34801561034f57600080fd5b5061037c6004803603602081101561036657600080fd5b81019080803590602001909291905050506111c4565b604051808273ffffffffffffffffffffffffffffffffffffffff16815260200191505060405180910390f35b3480156103b457600080fd5b50610401600480360360408110156103cb57600080fd5b81019080803573ffffffffffffffffffffffffffffffffffffffff1690602001909291908035906020019092919050505061125f565b005b34801561040f57600080fd5b506104186113a3565b6040518082815260200191505060405180910390f35b34801561043a57600080fd5b506104436113b4565b60405180821515815260200191505060405180910390f35b34801561046757600080fd5b506104d46004803603606081101561047e57600080fd5b81019080803573ffffffffffffffffffffffffffffffffffffffff169060200190929190803573ffffffffffffffffffffffffffffffffffffffff169060200190929190803590602001909291905050506113c7565b005b3480156104e257600080fd5b5061052f600480360360408110156104f957600080fd5b81019080803573ffffffffffffffffffffffffffffffffffffffff1690602001909291908035906020019092919050505061143d565b6040518082815260200191505060405180910390f35b34801561055157600080fd5b506105be6004803603606081101561056857600080fd5b81019080803573ffffffffffffffffffffffffffffffffffffffff169060200190929190803573ffffffffffffffffffffffffffffffffffffffff16906020019092919080359060200190929190505050611498565b005b3480156105cc57600080fd5b506105f9600480360360208110156105e357600080fd5b81019080803590602001909291905050506114b8565b005b34801561060757600080fd5b506106346004803603602081101561061e57600080fd5b8101908080359060200190929190505050611571565b6040518082815260200191505060405180910390f35b34801561065657600080fd5b5061065f611594565b005b34801561066d57600080fd5b506107276004803603602081101561068457600080fd5b81019080803590602001906401000000008111156106a157600080fd5b8201836020820111156106b357600080fd5b803590602001918460018302840111640100000000831117156106d557600080fd5b91908080601f016020809104026020016040519081016040528093929190818152602001838380828437600081840152601f19601f820116905080830192505050505050509192919290505050611660565b005b34801561073557600080fd5b506107626004803603602081101561074c57600080fd5b810190808035906020019092919050505061171b565b604051808273ffffffffffffffffffffffffffffffffffffffff16815260200191505060405180910390f35b34801561079a57600080fd5b506107c7600480360360208110156107b157600080fd5b8101908080359060200190929190505050611752565b005b3480156107d557600080fd5b506107de61180b565b6040518082815260200191505060405180910390f35b34801561080057600080fd5b50610809611811565b6040518080602001828103825283818151815260200191508051906020019080838360005b8381101561084957808201518184015260208101905061082e565b50505050905090810190601f1680156108765780820380516001836020036101000a031916815260200191505b509250505060405180910390f35b34801561089057600080fd5b506108d3600480360360208110156108a757600080fd5b81019080803573ffffffffffffffffffffffffffffffffffffffff1690602001909291905050506118b3565b6040518082815260200191505060405180910390f35b3480156108f557600080fd5b506108fe611988565b005b34801561090c57600080fd5b5061094f6004803603602081101561092357600080fd5b81019080803573ffffffffffffffffffffffffffffffffffffffff169060200190929190505050611af8565b6040518080602001828103825283818151815260200191508051906020019060200280838360005b83811015610992578082015181840152602081019050610977565b505050509050019250505060405180910390f35b6109ae611bf1565b005b3480156109bc57600080fd5b506109c5611ce0565b6040518082815260200191505060405180910390f35b3480156109e757600080fd5b506109f0611ce6565b604051808273ffffffffffffffffffffffffffffffffffffffff16815260200191505060405180910390f35b348015610a2857600080fd5b50610a31611d10565b6040518080602001828103825283818151815260200191508051906020019080838360005b83811015610a71578082015181840152602081019050610a56565b50505050905090810190601f168015610a9e5780820380516001836020036101000a031916815260200191505b509250505060405180910390f35b348015610ab857600080fd5b50610b0760048036036040811015610acf57600080fd5b81019080803573ffffffffffffffffffffffffffffffffffffffff169060200190929190803515159060200190929190505050611db2565b005b348015610b1557600080fd5b50610b1e611f68565b005b348015610b2c57600080fd5b50610c3060048036036080811015610b4357600080fd5b81019080803573ffffffffffffffffffffffffffffffffffffffff169060200190929190803573ffffffffffffffffffffffffffffffffffffffff1690602001909291908035906020019092919080359060200190640100000000811115610baa57600080fd5b820183602082011115610bbc57600080fd5b80359060200191846001830284011164010000000083111715610bde57600080fd5b91908080601f016020809104026020016040519081016040528093929190818152602001838380828437600081840152601f19601f820116905080830192505050505050509192919290505050612034565b005b610c5e60048036036020811015610c4857600080fd5b81019080803590602001909291905050506120ac565b005b348015610c6c57600080fd5b50610c9960048036036020811015610c8357600080fd5b81019080803590602001909291905050506123c1565b6040518080602001828103825283818151815260200191508051906020019080838360005b83811015610cd9578082015181840152602081019050610cbe565b50505050905090810190601f168015610d065780820380516001836020036101000a031916815260200191505b509250505060405180910390f35b348015610d2057600080fd5b50610d8360048036036040811015610d3757600080fd5b81019080803573ffffffffffffffffffffffffffffffffffffffff169060200190929190803573ffffffffffffffffffffffffffffffffffffffff169060200190929190505050612692565b60405180821515815260200191505060405180910390f35b348015610da757600080fd5b50610dea60048036036020811015610dbe57600080fd5b81019080803573ffffffffffffffffffffffffffffffffffffffff169060200190929190505050612726565b005b6000806000837bffffffffffffffffffffffffffffffffffffffffffffffffffffffff19167bffffffffffffffffffffffffffffffffffffffffffffffffffffffff1916815260200190815260200160002060009054906101000a900460ff169050919050565b610e5b61291b565b73ffffffffffffffffffffffffffffffffffffffff16610e79611ce6565b73ffffffffffffffffffffffffffffffffffffffff1614610f02576040517f08c379a00000000000000000000000000000000000000000000000000000000081526004018080602001828103825260208152602001807f4f776e61626c653a2063616c6c6572206973206e6f7420746865206f776e657281525060200191505060405180910390fd5b600b54610f0d6113a3565b10610f80576040517f08c379a000000000000000000000000000000000000000000000000000000000815260040180806020018281038252600a8152602001807f536f6c64206f757421210000000000000000000000000000000000000000000081525060200191505060405180910390fd5b600081118015610f91575060328111155b610fe6576040517f08c379a0000000000000000000000000000000000000000000000000000000008152600401808060200182810382526023815260200180613ea06023913960400191505060405180910390fd5b600b5461100382610ff56113a3565b61292390919063ffffffff16565b1115611077576040517f08c379a00000000000000000000000000000000000000000000000000000000081526004018080602001828103825260128152602001807f45786365656473204d41585f546f6b656e2e000000000000000000000000000081525060200191505060405180910390fd5b60005b818110156110b957600061109f60016110916113a3565b61292390919063ffffffff16565b90506110ab33826129ab565b50808060010191505061107a565b507f9670c8b300c38cd3db8d3f9429dd902e67f418c4dd193e2497f06d20efc7956082826110e56113a3565b604051808473ffffffffffffffffffffffffffffffffffffffff168152602001838152602001828152602001935050505060405180910390a15050565b606060068054600181600116156101000203166002900480601f0160208091040260200160405190810160405280929190818152602001828054600181600116156101000203166002900480156111ba5780601f1061118f576101008083540402835291602001916111ba565b820191906000526020600020905b81548152906001019060200180831161119d57829003601f168201915b5050505050905090565b60006111cf826129c9565b611224576040517f08c379a000000000000000000000000000000000000000000000000000000000815260040180806020018281038252602c815260200180613f91602c913960400191505060405180910390fd5b6004600083815260200190815260200160002060009054906101000a900473ffffffffffffffffffffffffffffffffffffffff169050919050565b600061126a8261171b565b90508073ffffffffffffffffffffffffffffffffffffffff168373ffffffffffffffffffffffffffffffffffffffff1614156112f1576040517f08c379a00000000000000000000000000000000000000000000000000000000081526004018080602001828103825260218152602001806140156021913960400191505060405180910390fd5b8073ffffffffffffffffffffffffffffffffffffffff1661131061291b565b73ffffffffffffffffffffffffffffffffffffffff16148061133f575061133e8161133961291b565b612692565b5b611394576040517f08c379a0000000000000000000000000000000000000000000000000000000008152600401808060200182810382526038815260200180613ec36038913960400191505060405180910390fd5b61139e83836129e6565b505050565b60006113af6002612a9f565b905090565b600d60009054906101000a900460ff1681565b6113d86113d261291b565b82612ab4565b61142d576040517f08c379a000000000000000000000000000000000000000000000000000000000815260040180806020018281038252603181526020018061405a6031913960400191505060405180910390fd5b611438838383612ba8565b505050565b600061149082600160008673ffffffffffffffffffffffffffffffffffffffff1673ffffffffffffffffffffffffffffffffffffffff168152602001908152602001600020612deb90919063ffffffff16565b905092915050565b6114b383838360405180602001604052806000815250612034565b505050565b6114c061291b565b73ffffffffffffffffffffffffffffffffffffffff166114de611ce6565b73ffffffffffffffffffffffffffffffffffffffff1614611567576040517f08c379a00000000000000000000000000000000000000000000000000000000081526004018080602001828103825260208152602001807f4f776e61626c653a2063616c6c6572206973206e6f7420746865206f776e657281525060200191505060405180910390fd5b80600b8190555050565b600080611588836002612e0590919063ffffffff16565b50905080915050919050565b61159c61291b565b73ffffffffffffffffffffffffffffffffffffffff166115ba611ce6565b73ffffffffffffffffffffffffffffffffffffffff1614611643576040517f08c379a00000000000000000000000000000000000000000000000000000000081526004018080602001828103825260208152602001807f4f776e61626c653a2063616c6c6572206973206e6f7420746865206f776e657281525060200191505060405180910390fd5b6000600d60006101000a81548160ff021916908315150217905550565b61166861291b565b73ffffffffffffffffffffffffffffffffffffffff16611686611ce6565b73ffffffffffffffffffffffffffffffffffffffff161461170f576040517f08c379a00000000000000000000000000000000000000000000000000000000081526004018080602001828103825260208152602001807f4f776e61626c653a2063616c6c6572206973206e6f7420746865206f776e657281525060200191505060405180910390fd5b61171881612e31565b50565b600061174b82604051806060016040528060298152602001613f25602991396002612e4b9092919063ffffffff16565b9050919050565b61175a61291b565b73ffffffffffffffffffffffffffffffffffffffff16611778611ce6565b73ffffffffffffffffffffffffffffffffffffffff1614611801576040517f08c379a00000000000000000000000000000000000000000000000000000000081526004018080602001828103825260208152602001807f4f776e61626c653a2063616c6c6572206973206e6f7420746865206f776e657281525060200191505060405180910390fd5b80600c8190555050565b600b5481565b606060098054600181600116156101000203166002900480601f0160208091040260200160405190810160405280929190818152602001828054600181600116156101000203166002900480156118a95780601f1061187e576101008083540402835291602001916118a9565b820191906000526020600020905b81548152906001019060200180831161188c57829003601f168201915b5050505050905090565b60008073ffffffffffffffffffffffffffffffffffffffff168273ffffffffffffffffffffffffffffffffffffffff16141561193a576040517f08c379a000000000000000000000000000000000000000000000000000000000815260040180806020018281038252602a815260200180613efb602a913960400191505060405180910390fd5b611981600160008473ffffffffffffffffffffffffffffffffffffffff1673ffffffffffffffffffffffffffffffffffffffff168152602001908152602001600020612e6a565b9050919050565b61199061291b565b73ffffffffffffffffffffffffffffffffffffffff166119ae611ce6565b73ffffffffffffffffffffffffffffffffffffffff1614611a37576040517f08c379a00000000000000000000000000000000000000000000000000000000081526004018080602001828103825260208152602001807f4f776e61626c653a2063616c6c6572206973206e6f7420746865206f776e657281525060200191505060405180910390fd5b600073ffffffffffffffffffffffffffffffffffffffff16600a60009054906101000a900473ffffffffffffffffffffffffffffffffffffffff1673ffffffffffffffffffffffffffffffffffffffff167f8be0079c531659141344cd1fd0a4f28419497f9722a3daafe3b4186f6b6457e060405160405180910390a36000600a60006101000a81548173ffffffffffffffffffffffffffffffffffffffff021916908373ffffffffffffffffffffffffffffffffffffffff160217905550565b60606000611b05836118b3565b90506000811415611b6057600067ffffffffffffffff81118015611b2857600080fd5b50604051908082528060200260200182016040528015611b575781602001602082028036833780820191505090505b50915050611bec565b60608167ffffffffffffffff81118015611b7957600080fd5b50604051908082528060200260200182016040528015611ba85781602001602082028036833780820191505090505b50905060005b82811015611be557611bc0858261143d565b828281518110611bcc57fe5b6020026020010181815250508080600101915050611bae565b8193505050505b919050565b611bf961291b565b73ffffffffffffffffffffffffffffffffffffffff16611c17611ce6565b73ffffffffffffffffffffffffffffffffffffffff1614611ca0576040517f08c379a00000000000000000000000000000000000000000000000000000000081526004018080602001828103825260208152602001807f4f776e61626c653a2063616c6c6572206973206e6f7420746865206f776e657281525060200191505060405180910390fd5b3373ffffffffffffffffffffffffffffffffffffffff166108fc479081150290604051600060405180830381858888f19350505050611cde57600080fd5b565b600c5481565b6000600a60009054906101000a900473ffffffffffffffffffffffffffffffffffffffff16905090565b606060078054600181600116156101000203166002900480601f016020809104026020016040519081016040528092919081815260200182805460018160011615610100020316600290048015611da85780601f10611d7d57610100808354040283529160200191611da8565b820191906000526020600020905b815481529060010190602001808311611d8b57829003601f168201915b5050505050905090565b611dba61291b565b73ffffffffffffffffffffffffffffffffffffffff168273ffffffffffffffffffffffffffffffffffffffff161415611e5b576040517f08c379a00000000000000000000000000000000000000000000000000000000081526004018080602001828103825260198152602001807f4552433732313a20617070726f766520746f2063616c6c65720000000000000081525060200191505060405180910390fd5b8060056000611e6861291b565b73ffffffffffffffffffffffffffffffffffffffff1673ffffffffffffffffffffffffffffffffffffffff16815260200190815260200160002060008473ffffffffffffffffffffffffffffffffffffffff1673ffffffffffffffffffffffffffffffffffffffff16815260200190815260200160002060006101000a81548160ff0219169083151502179055508173ffffffffffffffffffffffffffffffffffffffff16611f1561291b565b73ffffffffffffffffffffffffffffffffffffffff167f17307eab39ab6107e8899845ad3d59bd9653f200f220920489ca2b5937696c318360405180821515815260200191505060405180910390a35050565b611f7061291b565b73ffffffffffffffffffffffffffffffffffffffff16611f8e611ce6565b73ffffffffffffffffffffffffffffffffffffffff1614612017576040517f08c379a00000000000000000000000000000000000000000000000000000000081526004018080602001828103825260208152602001807f4f776e61626c653a2063616c6c6572206973206e6f7420746865206f776e657281525060200191505060405180910390fd5b6001600d60006101000a81548160ff021916908315150217905550565b61204561203f61291b565b83612ab4565b61209a576040517f08c379a000000000000000000000000000000000000000000000000000000000815260040180806020018281038252603181526020018061405a6031913960400191505060405180910390fd5b6120a684848484612e7f565b50505050565b60011515600d60009054906101000a900460ff16151514612135576040517f08c379a00000000000000000000000000000000000000000000000000000000081526004018080602001828103825260148152602001807f53616c65206861736e277420737461727465642e00000000000000000000000081525060200191505060405180910390fd5b600b546121406113a3565b106121b3576040517f08c379a00000000000000000000000000000000000000000000000000000000081526004018080602001828103825260098152602001807f536f6c64206f757421000000000000000000000000000000000000000000000081525060200191505060405180910390fd5b6000811180156121c4575060328111155b612219576040517f08c379a0000000000000000000000000000000000000000000000000000000008152600401808060200182810382526023815260200180613ea06023913960400191505060405180910390fd5b600b54612236826122286113a3565b61292390919063ffffffff16565b11156122aa576040517f08c379a00000000000000000000000000000000000000000000000000000000081526004018080602001828103825260128152602001807f45786365656473204d41585f546f6b656e2e000000000000000000000000000081525060200191505060405180910390fd5b6122bf81600c54612ef190919063ffffffff16565b341015612317576040517f08c379a00000000000000000000000000000000000000000000000000000000081526004018080602001828103825260248152602001806140366024913960400191505060405180910390fd5b60005b8181101561235957600061233f60016123316113a3565b61292390919063ffffffff16565b905061234b33826129ab565b50808060010191505061231a565b507f9670c8b300c38cd3db8d3f9429dd902e67f418c4dd193e2497f06d20efc7956033826123856113a3565b604051808473ffffffffffffffffffffffffffffffffffffffff168152602001838152602001828152602001935050505060405180910390a150565b60606123cc826129c9565b612421576040517f08c379a000000000000000000000000000000000000000000000000000000000815260040180806020018281038252602f815260200180613fe6602f913960400191505060405180910390fd5b6060600860008481526020019081526020016000208054600181600116156101000203166002900480601f0160208091040260200160405190810160405280929190818152602001828054600181600116156101000203166002900480156124ca5780601f1061249f576101008083540402835291602001916124ca565b820191906000526020600020905b8154815290600101906020018083116124ad57829003601f168201915b5050505050905060606124db611811565b90506000815114156124f157819250505061268d565b6000825111156125c25780826040516020018083805190602001908083835b602083106125335780518252602082019150602081019050602083039250612510565b6001836020036101000a03801982511681845116808217855250505050505090500182805190602001908083835b602083106125845780518252602082019150602081019050602083039250612561565b6001836020036101000a038019825116818451168082178552505050505050905001925050506040516020818303038152906040529250505061268d565b806125cc85612f77565b6040516020018083805190602001908083835b6020831061260257805182526020820191506020810190506020830392506125df565b6001836020036101000a03801982511681845116808217855250505050505090500182805190602001908083835b602083106126535780518252602082019150602081019050602083039250612630565b6001836020036101000a03801982511681845116808217855250505050505090500192505050604051602081830303815290604052925050505b919050565b6000600560008473ffffffffffffffffffffffffffffffffffffffff1673ffffffffffffffffffffffffffffffffffffffff16815260200190815260200160002060008373ffffffffffffffffffffffffffffffffffffffff1673ffffffffffffffffffffffffffffffffffffffff16815260200190815260200160002060009054906101000a900460ff16905092915050565b61272e61291b565b73ffffffffffffffffffffffffffffffffffffffff1661274c611ce6565b73ffffffffffffffffffffffffffffffffffffffff16146127d5576040517f08c379a00000000000000000000000000000000000000000000000000000000081526004018080602001828103825260208152602001807f4f776e61626c653a2063616c6c6572206973206e6f7420746865206f776e657281525060200191505060405180910390fd5b600073ffffffffffffffffffffffffffffffffffffffff168173ffffffffffffffffffffffffffffffffffffffff16141561285b576040517f08c379a0000000000000000000000000000000000000000000000000000000008152600401808060200182810382526026815260200180613e046026913960400191505060405180910390fd5b8073ffffffffffffffffffffffffffffffffffffffff16600a60009054906101000a900473ffffffffffffffffffffffffffffffffffffffff1673ffffffffffffffffffffffffffffffffffffffff167f8be0079c531659141344cd1fd0a4f28419497f9722a3daafe3b4186f6b6457e060405160405180910390a380600a60006101000a81548173ffffffffffffffffffffffffffffffffffffffff021916908373ffffffffffffffffffffffffffffffffffffffff16021790555050565b600033905090565b6000808284019050838110156129a1576040517f08c379a000000000000000000000000000000000000000000000000000000000815260040180806020018281038252601b8152602001807f536166654d6174683a206164646974696f6e206f766572666c6f77000000000081525060200191505060405180910390fd5b8091505092915050565b6129c58282604051806020016040528060008152506130be565b5050565b60006129df82600261312f90919063ffffffff16565b9050919050565b816004600083815260200190815260200160002060006101000a81548173ffffffffffffffffffffffffffffffffffffffff021916908373ffffffffffffffffffffffffffffffffffffffff160217905550808273ffffffffffffffffffffffffffffffffffffffff16612a598361171b565b73ffffffffffffffffffffffffffffffffffffffff167f8c5be1e5ebec7d5bd14f71427d1e84f3dd0314c0f7b2291e5b200ac8c7c3b92560405160405180910390a45050565b6000612aad82600001613149565b9050919050565b6000612abf826129c9565b612b14576040517f08c379a000000000000000000000000000000000000000000000000000000000815260040180806020018281038252602c815260200180613e74602c913960400191505060405180910390fd5b6000612b1f8361171b565b90508073ffffffffffffffffffffffffffffffffffffffff168473ffffffffffffffffffffffffffffffffffffffff161480612b8e57508373ffffffffffffffffffffffffffffffffffffffff16612b76846111c4565b73ffffffffffffffffffffffffffffffffffffffff16145b80612b9f5750612b9e8185612692565b5b91505092915050565b8273ffffffffffffffffffffffffffffffffffffffff16612bc88261171b565b73ffffffffffffffffffffffffffffffffffffffff1614612c34576040517f08c379a0000000000000000000000000000000000000000000000000000000008152600401808060200182810382526029815260200180613fbd6029913960400191505060405180910390fd5b600073ffffffffffffffffffffffffffffffffffffffff168273ffffffffffffffffffffffffffffffffffffffff161415612cba576040517f08c379a0000000000000000000000000000000000000000000000000000000008152600401808060200182810382526024815260200180613e2a6024913960400191505060405180910390fd5b612cc583838361315a565b612cd06000826129e6565b612d2181600160008673ffffffffffffffffffffffffffffffffffffffff1673ffffffffffffffffffffffffffffffffffffffff16815260200190815260200160002061315f90919063ffffffff16565b50612d7381600160008573ffffffffffffffffffffffffffffffffffffffff1673ffffffffffffffffffffffffffffffffffffffff16815260200190815260200160002061317990919063ffffffff16565b50612d8a818360026131939092919063ffffffff16565b50808273ffffffffffffffffffffffffffffffffffffffff168473ffffffffffffffffffffffffffffffffffffffff167fddf252ad1be2c89b69c2b068fc378daa952ba7f163c4a11628f55a4df523b3ef60405160405180910390a4505050565b6000612dfa83600001836131c8565b60001c905092915050565b600080600080612e18866000018661324b565b915091508160001c8160001c9350935050509250929050565b8060099080519060200190612e47929190613d12565b5050565b6000612e5e846000018460001b846132e4565b60001c90509392505050565b6000612e78826000016133da565b9050919050565b612e8a848484612ba8565b612e96848484846133eb565b612eeb576040517f08c379a0000000000000000000000000000000000000000000000000000000008152600401808060200182810382526032815260200180613dd26032913960400191505060405180910390fd5b50505050565b600080831415612f045760009050612f71565b6000828402905082848281612f1557fe5b0414612f6c576040517f08c379a0000000000000000000000000000000000000000000000000000000008152600401808060200182810382526021815260200180613f706021913960400191505060405180910390fd5b809150505b92915050565b60606000821415612fbf576040518060400160405280600181526020017f300000000000000000000000000000000000000000000000000000000000000081525090506130b9565b600082905060005b60008214612fe9578080600101915050600a8281612fe157fe5b049150612fc7565b60608167ffffffffffffffff8111801561300257600080fd5b506040519080825280601f01601f1916602001820160405280156130355781602001600182028036833780820191505090505b50905060006001830390508593505b600084146130b157600a848161305657fe5b0660300160f81b8282806001900393508151811061307057fe5b60200101907effffffffffffffffffffffffffffffffffffffffffffffffffffffffffffff1916908160001a905350600a84816130a957fe5b049350613044565b819450505050505b919050565b6130c88383613604565b6130d560008484846133eb565b61312a576040517f08c379a0000000000000000000000000000000000000000000000000000000008152600401808060200182810382526032815260200180613dd26032913960400191505060405180910390fd5b505050565b6000613141836000018360001b6137f8565b905092915050565b600081600001805490509050919050565b505050565b6000613171836000018360001b61381b565b905092915050565b600061318b836000018360001b613903565b905092915050565b60006131bf846000018460001b8473ffffffffffffffffffffffffffffffffffffffff1660001b613973565b90509392505050565b600081836000018054905011613229576040517f08c379a0000000000000000000000000000000000000000000000000000000008152600401808060200182810382526022815260200180613db06022913960400191505060405180910390fd5b82600001828154811061323857fe5b9060005260206000200154905092915050565b600080828460000180549050116132ad576040517f08c379a0000000000000000000000000000000000000000000000000000000008152600401808060200182810382526022815260200180613f4e6022913960400191505060405180910390fd5b60008460000184815481106132be57fe5b906000526020600020906002020190508060000154816001015492509250509250929050565b600080846001016000858152602001908152602001600020549050600081141583906133ab576040517f08c379a00000000000000000000000000000000000000000000000000000000081526004018080602001828103825283818151815260200191508051906020019080838360005b83811015613370578082015181840152602081019050613355565b50505050905090810190601f16801561339d5780820380516001836020036101000a031916815260200191505b509250505060405180910390fd5b508460000160018203815481106133be57fe5b9060005260206000209060020201600101549150509392505050565b600081600001805490509050919050565b600061340c8473ffffffffffffffffffffffffffffffffffffffff16613a4f565b61341957600190506135fc565b606061358363150b7a0260e01b61342e61291b565b888787604051602401808573ffffffffffffffffffffffffffffffffffffffff1681526020018473ffffffffffffffffffffffffffffffffffffffff16815260200183815260200180602001828103825283818151815260200191508051906020019080838360005b838110156134b2578082015181840152602081019050613497565b50505050905090810190601f1680156134df5780820380516001836020036101000a031916815260200191505b5095505050505050604051602081830303815290604052907bffffffffffffffffffffffffffffffffffffffffffffffffffffffff19166020820180517bffffffffffffffffffffffffffffffffffffffffffffffffffffffff8381831617835250505050604051806060016040528060328152602001613dd2603291398773ffffffffffffffffffffffffffffffffffffffff16613a629092919063ffffffff16565b9050600081806020019051602081101561359c57600080fd5b8101908080519060200190929190505050905063150b7a0260e01b7bffffffffffffffffffffffffffffffffffffffffffffffffffffffff1916817bffffffffffffffffffffffffffffffffffffffffffffffffffffffff191614925050505b949350505050565b600073ffffffffffffffffffffffffffffffffffffffff168273ffffffffffffffffffffffffffffffffffffffff1614156136a7576040517f08c379a00000000000000000000000000000000000000000000000000000000081526004018080602001828103825260208152602001807f4552433732313a206d696e7420746f20746865207a65726f206164647265737381525060200191505060405180910390fd5b6136b0816129c9565b15613723576040517f08c379a000000000000000000000000000000000000000000000000000000000815260040180806020018281038252601c8152602001807f4552433732313a20746f6b656e20616c7265616479206d696e7465640000000081525060200191505060405180910390fd5b61372f6000838361315a565b61378081600160008573ffffffffffffffffffffffffffffffffffffffff1673ffffffffffffffffffffffffffffffffffffffff16815260200190815260200160002061317990919063ffffffff16565b50613797818360026131939092919063ffffffff16565b50808273ffffffffffffffffffffffffffffffffffffffff16600073ffffffffffffffffffffffffffffffffffffffff167fddf252ad1be2c89b69c2b068fc378daa952ba7f163c4a11628f55a4df523b3ef60405160405180910390a45050565b600080836001016000848152602001908152602001600020541415905092915050565b600080836001016000848152602001908152602001600020549050600081146138f7576000600182039050600060018660000180549050039050600086600001828154811061386657fe5b906000526020600020015490508087600001848154811061388357fe5b90600052602060002001819055506001830187600101600083815260200190815260200160002081905550866000018054806138bb57fe5b600190038181906000526020600020016000905590558660010160008781526020019081526020016000206000905560019450505050506138fd565b60009150505b92915050565b600061390f8383613a7a565b61396857826000018290806001815401808255809150506001900390600052602060002001600090919091909150558260000180549050836001016000848152602001908152602001600020819055506001905061396d565b600090505b92915050565b6000808460010160008581526020019081526020016000205490506000811415613a1a57846000016040518060400160405280868152602001858152509080600181540180825580915050600190039060005260206000209060020201600090919091909150600082015181600001556020820151816001015550508460000180549050856001016000868152602001908152602001600020819055506001915050613a48565b82856000016001830381548110613a2d57fe5b90600052602060002090600202016001018190555060009150505b9392505050565b600080823b905060008111915050919050565b6060613a718484600085613a9d565b90509392505050565b600080836001016000848152602001908152602001600020541415905092915050565b606082471015613af8576040517f08c379a0000000000000000000000000000000000000000000000000000000008152600401808060200182810382526026815260200180613e4e6026913960400191505060405180910390fd5b613b0185613a4f565b613b73576040517f08c379a000000000000000000000000000000000000000000000000000000000815260040180806020018281038252601d8152602001807f416464726573733a2063616c6c20746f206e6f6e2d636f6e747261637400000081525060200191505060405180910390fd5b600060608673ffffffffffffffffffffffffffffffffffffffff1685876040518082805190602001908083835b60208310613bc35780518252602082019150602081019050602083039250613ba0565b6001836020036101000a03801982511681845116808217855250505050505090500191505060006040518083038185875af1925050503d8060008114613c25576040519150601f19603f3d011682016040523d82523d6000602084013e613c2a565b606091505b5091509150613c3a828286613c46565b92505050949350505050565b60608315613c5657829050613d0b565b600083511115613c695782518084602001fd5b816040517f08c379a00000000000000000000000000000000000000000000000000000000081526004018080602001828103825283818151815260200191508051906020019080838360005b83811015613cd0578082015181840152602081019050613cb5565b50505050905090810190601f168015613cfd5780820380516001836020036101000a031916815260200191505b509250505060405180910390fd5b9392505050565b828054600181600116156101000203166002900490600052602060002090601f016020900481019282601f10613d5357805160ff1916838001178555613d81565b82800160010185558215613d81579182015b82811115613d80578251825591602001919060010190613d65565b5b509050613d8e9190613d92565b5090565b5b80821115613dab576000816000905550600101613d93565b509056fe456e756d657261626c655365743a20696e646578206f7574206f6620626f756e64734552433732313a207472616e7366657220746f206e6f6e20455243373231526563656976657220696d706c656d656e7465724f776e61626c653a206e6577206f776e657220697320746865207a65726f20616464726573734552433732313a207472616e7366657220746f20746865207a65726f2061646472657373416464726573733a20696e73756666696369656e742062616c616e636520666f722063616c6c4552433732313a206f70657261746f7220717565727920666f72206e6f6e6578697374656e7420746f6b656e596f752063616e206d696e74206d696e696d756d20312c206d6178696d756d2035302e4552433732313a20617070726f76652063616c6c6572206973206e6f74206f776e6572206e6f7220617070726f76656420666f7220616c6c4552433732313a2062616c616e636520717565727920666f7220746865207a65726f20616464726573734552433732313a206f776e657220717565727920666f72206e6f6e6578697374656e7420746f6b656e456e756d657261626c654d61703a20696e646578206f7574206f6620626f756e6473536166654d6174683a206d756c7469706c69636174696f6e206f766572666c6f774552433732313a20617070726f76656420717565727920666f72206e6f6e6578697374656e7420746f6b656e4552433732313a207472616e73666572206f6620746f6b656e2074686174206973206e6f74206f776e4552433732314d657461646174613a2055524920717565727920666f72206e6f6e6578697374656e7420746f6b656e4552433732313a20617070726f76616c20746f2063757272656e74206f776e657245746865722076616c75652073656e742069732062656c6f77207468652070726963652e4552433732313a207472616e736665722063616c6c6572206973206e6f74206f776e6572206e6f7220617070726f766564a2646970667358221220e4723aa9f0ceae50163abf5e6a4d27c54d39ff201097e73ec6e2aafcf118a66564736f6c63430007030033687474703a2f2f6170692e6b6174616e616e73616d757261692e6172742f4d657461646174612f",
  "devdoc": {
    "kind": "dev",
    "methods": {
      "approve(address,uint256)": {
        "details": "See {IERC721-approve}."
      },
      "balanceOf(address)": {
        "details": "See {IERC721-balanceOf}."
      },
      "baseURI()": {
        "details": "Returns the base URI set via {_setBaseURI}. This will be automatically added as a prefix in {tokenURI} to each token's URI, or to the token ID if no specific URI is set for that token ID."
      },
      "getApproved(uint256)": {
        "details": "See {IERC721-getApproved}."
      },
      "isApprovedForAll(address,address)": {
        "details": "See {IERC721-isApprovedForAll}."
      },
      "name()": {
        "details": "See {IERC721Metadata-name}."
      },
      "owner()": {
        "details": "Returns the address of the current owner."
      },
      "ownerOf(uint256)": {
        "details": "See {IERC721-ownerOf}."
      },
      "renounceOwnership()": {
        "details": "Leaves the contract without owner. It will not be possible to call `onlyOwner` functions anymore. Can only be called by the current owner. NOTE: Renouncing ownership will leave the contract without an owner, thereby removing any functionality that is only available to the owner."
      },
      "safeTransferFrom(address,address,uint256)": {
        "details": "See {IERC721-safeTransferFrom}."
      },
      "safeTransferFrom(address,address,uint256,bytes)": {
        "details": "See {IERC721-safeTransferFrom}."
      },
      "setApprovalForAll(address,bool)": {
        "details": "See {IERC721-setApprovalForAll}."
      },
      "supportsInterface(bytes4)": {
        "details": "See {IERC165-supportsInterface}. Time complexity O(1), guaranteed to always use less than 30 000 gas."
      },
      "symbol()": {
        "details": "See {IERC721Metadata-symbol}."
      },
      "tokenByIndex(uint256)": {
        "details": "See {IERC721Enumerable-tokenByIndex}."
      },
      "tokenOfOwnerByIndex(address,uint256)": {
        "details": "See {IERC721Enumerable-tokenOfOwnerByIndex}."
      },
      "tokenURI(uint256)": {
        "details": "See {IERC721Metadata-tokenURI}."
      },
      "totalSupply()": {
        "details": "See {IERC721Enumerable-totalSupply}."
      },
      "transferFrom(address,address,uint256)": {
        "details": "See {IERC721-transferFrom}."
      },
      "transferOwnership(address)": {
        "details": "Transfers ownership of the contract to a new account (`newOwner`). Can only be called by the current owner."
      }
    },
    "version": 1
  },
  "userdoc": {
    "kind": "user",
    "methods": {},
    "version": 1
  },
  "storageLayout": {
    "storage": [
      {
        "astId": 123,
        "contract": "contracts/BlueGear.sol:BlueGear",
        "label": "_supportedInterfaces",
        "offset": 0,
        "slot": "0",
        "type": "t_mapping(t_bytes4,t_bool)"
      },
      {
        "astId": 579,
        "contract": "contracts/BlueGear.sol:BlueGear",
        "label": "_holderTokens",
        "offset": 0,
        "slot": "1",
        "type": "t_mapping(t_address,t_struct(UintSet)2944_storage)"
      },
      {
        "astId": 581,
        "contract": "contracts/BlueGear.sol:BlueGear",
        "label": "_tokenOwners",
        "offset": 0,
        "slot": "2",
        "type": "t_struct(UintToAddressMap)2321_storage"
      },
      {
        "astId": 585,
        "contract": "contracts/BlueGear.sol:BlueGear",
        "label": "_tokenApprovals",
        "offset": 0,
        "slot": "4",
        "type": "t_mapping(t_uint256,t_address)"
      },
      {
        "astId": 591,
        "contract": "contracts/BlueGear.sol:BlueGear",
        "label": "_operatorApprovals",
        "offset": 0,
        "slot": "5",
        "type": "t_mapping(t_address,t_mapping(t_address,t_bool))"
      },
      {
        "astId": 593,
        "contract": "contracts/BlueGear.sol:BlueGear",
        "label": "_name",
        "offset": 0,
        "slot": "6",
        "type": "t_string_storage"
      },
      {
        "astId": 595,
        "contract": "contracts/BlueGear.sol:BlueGear",
        "label": "_symbol",
        "offset": 0,
        "slot": "7",
        "type": "t_string_storage"
      },
      {
        "astId": 599,
        "contract": "contracts/BlueGear.sol:BlueGear",
        "label": "_tokenURIs",
        "offset": 0,
        "slot": "8",
        "type": "t_mapping(t_uint256,t_string_storage)"
      },
      {
        "astId": 601,
        "contract": "contracts/BlueGear.sol:BlueGear",
        "label": "_baseURI",
        "offset": 0,
        "slot": "9",
        "type": "t_string_storage"
      },
      {
        "astId": 7,
        "contract": "contracts/BlueGear.sol:BlueGear",
        "label": "_owner",
        "offset": 0,
        "slot": "10",
        "type": "t_address"
      },
      {
        "astId": 3140,
        "contract": "contracts/BlueGear.sol:BlueGear",
        "label": "MAX_Token",
        "offset": 0,
        "slot": "11",
        "type": "t_uint256"
      },
      {
        "astId": 3143,
        "contract": "contracts/BlueGear.sol:BlueGear",
        "label": "PRICE",
        "offset": 0,
        "slot": "12",
        "type": "t_uint256"
      },
      {
        "astId": 3146,
        "contract": "contracts/BlueGear.sol:BlueGear",
        "label": "hasSaleStarted",
        "offset": 0,
        "slot": "13",
        "type": "t_bool"
      }
    ],
    "types": {
      "t_address": {
        "encoding": "inplace",
        "label": "address",
        "numberOfBytes": "20"
      },
      "t_array(t_bytes32)dyn_storage": {
        "base": "t_bytes32",
        "encoding": "dynamic_array",
        "label": "bytes32[]",
        "numberOfBytes": "32"
      },
      "t_array(t_struct(MapEntry)1995_storage)dyn_storage": {
        "base": "t_struct(MapEntry)1995_storage",
        "encoding": "dynamic_array",
        "label": "struct EnumerableMap.MapEntry[]",
        "numberOfBytes": "32"
      },
      "t_bool": {
        "encoding": "inplace",
        "label": "bool",
        "numberOfBytes": "1"
      },
      "t_bytes32": {
        "encoding": "inplace",
        "label": "bytes32",
        "numberOfBytes": "32"
      },
      "t_bytes4": {
        "encoding": "inplace",
        "label": "bytes4",
        "numberOfBytes": "4"
      },
      "t_mapping(t_address,t_bool)": {
        "encoding": "mapping",
        "key": "t_address",
        "label": "mapping(address => bool)",
        "numberOfBytes": "32",
        "value": "t_bool"
      },
      "t_mapping(t_address,t_mapping(t_address,t_bool))": {
        "encoding": "mapping",
        "key": "t_address",
        "label": "mapping(address => mapping(address => bool))",
        "numberOfBytes": "32",
        "value": "t_mapping(t_address,t_bool)"
      },
      "t_mapping(t_address,t_struct(UintSet)2944_storage)": {
        "encoding": "mapping",
        "key": "t_address",
        "label": "mapping(address => struct EnumerableSet.UintSet)",
        "numberOfBytes": "32",
        "value": "t_struct(UintSet)2944_storage"
      },
      "t_mapping(t_bytes32,t_uint256)": {
        "encoding": "mapping",
        "key": "t_bytes32",
        "label": "mapping(bytes32 => uint256)",
        "numberOfBytes": "32",
        "value": "t_uint256"
      },
      "t_mapping(t_bytes4,t_bool)": {
        "encoding": "mapping",
        "key": "t_bytes4",
        "label": "mapping(bytes4 => bool)",
        "numberOfBytes": "32",
        "value": "t_bool"
      },
      "t_mapping(t_uint256,t_address)": {
        "encoding": "mapping",
        "key": "t_uint256",
        "label": "mapping(uint256 => address)",
        "numberOfBytes": "32",
        "value": "t_address"
      },
      "t_mapping(t_uint256,t_string_storage)": {
        "encoding": "mapping",
        "key": "t_uint256",
        "label": "mapping(uint256 => string)",
        "numberOfBytes": "32",
        "value": "t_string_storage"
      },
      "t_string_storage": {
        "encoding": "bytes",
        "label": "string",
        "numberOfBytes": "32"
      },
      "t_struct(Map)2003_storage": {
        "encoding": "inplace",
        "label": "struct EnumerableMap.Map",
        "members": [
          {
            "astId": 1998,
            "contract": "contracts/BlueGear.sol:BlueGear",
            "label": "_entries",
            "offset": 0,
            "slot": "0",
            "type": "t_array(t_struct(MapEntry)1995_storage)dyn_storage"
          },
          {
            "astId": 2002,
            "contract": "contracts/BlueGear.sol:BlueGear",
            "label": "_indexes",
            "offset": 0,
            "slot": "1",
            "type": "t_mapping(t_bytes32,t_uint256)"
          }
        ],
        "numberOfBytes": "64"
      },
      "t_struct(MapEntry)1995_storage": {
        "encoding": "inplace",
        "label": "struct EnumerableMap.MapEntry",
        "members": [
          {
            "astId": 1992,
            "contract": "contracts/BlueGear.sol:BlueGear",
            "label": "_key",
            "offset": 0,
            "slot": "0",
            "type": "t_bytes32"
          },
          {
            "astId": 1994,
            "contract": "contracts/BlueGear.sol:BlueGear",
            "label": "_value",
            "offset": 0,
            "slot": "1",
            "type": "t_bytes32"
          }
        ],
        "numberOfBytes": "64"
      },
      "t_struct(Set)2558_storage": {
        "encoding": "inplace",
        "label": "struct EnumerableSet.Set",
        "members": [
          {
            "astId": 2553,
            "contract": "contracts/BlueGear.sol:BlueGear",
            "label": "_values",
            "offset": 0,
            "slot": "0",
            "type": "t_array(t_bytes32)dyn_storage"
          },
          {
            "astId": 2557,
            "contract": "contracts/BlueGear.sol:BlueGear",
            "label": "_indexes",
            "offset": 0,
            "slot": "1",
            "type": "t_mapping(t_bytes32,t_uint256)"
          }
        ],
        "numberOfBytes": "64"
      },
      "t_struct(UintSet)2944_storage": {
        "encoding": "inplace",
        "label": "struct EnumerableSet.UintSet",
        "members": [
          {
            "astId": 2943,
            "contract": "contracts/BlueGear.sol:BlueGear",
            "label": "_inner",
            "offset": 0,
            "slot": "0",
            "type": "t_struct(Set)2558_storage"
          }
        ],
        "numberOfBytes": "64"
      },
      "t_struct(UintToAddressMap)2321_storage": {
        "encoding": "inplace",
        "label": "struct EnumerableMap.UintToAddressMap",
        "members": [
          {
            "astId": 2320,
            "contract": "contracts/BlueGear.sol:BlueGear",
            "label": "_inner",
            "offset": 0,
            "slot": "0",
            "type": "t_struct(Map)2003_storage"
          }
        ],
        "numberOfBytes": "64"
      },
      "t_uint256": {
        "encoding": "inplace",
        "label": "uint256",
        "numberOfBytes": "32"
      }
    }
  }
}